:060000000A128A110C280F
:10000800FE00030EF0000A08F1000A128A15742F88
:100018000A128A110F28831603130A128A15D82682
:100028000A128A11E1000A128A15D9260A128A11BF
:10003800E2000A128A15DA260A128A11E3000A1265
:100048008A15DB260A128A11E4000A128A15DC26B0
:100058000A128A11E5008313A0308400C6300A1200
:100068008A15DD260A128A11613084006E300A1260
:100078008A15DD260A128A11FB0183010A128A11E8
:1000880045280A128A11ED270A128A110A128A15BE
:10009800E5260A128A11D0308400831603136108FA
:1000A80083138000840A62088000840A6308800041
:1000B800840A64088000840A65088000203084006F
:1000C80050088000840A51088000840A5208800081
:1000D800840A53088000840A540880000A128A118E
:1000E80022230A128A1100300A128A1171260A1272
:1000F8008A1101300A128A1171260A128A110C30EB
:100108000A128A1171260A128A110A300A128A11F1
:1001180071260A128A111530F8008030F9000A1287
:100128008A1165270A128A1108300A128A11712663
:100138000A128A1100300A128A1171260A128A11CB
:100148000130F8008030F9000A128A1165270A1276
:100158008A1108300A128A1171260A128A11093086
:100168000A128A1171260A128A110A128A15F226AF
:100178000A128A11730883160313D6007208D50071
:10018800003083120313A7000030A6000330A50037
:10019800FF30A400831603135508F2005608F30035
:1001A800F401F5010030F9000030F800C330F70021
:1001B8005030F6000A128A1119270A128A11750896
:1001C80083120313AB007408AA007308A90072080D
:1001D800A8000A128A116F240A128A1183120313C3
:1001E800250883160313E0008312031324088316DB
:1001F8000313DF001030F2002730F3006008F50029
:100208005F08F4000A128A11AB270A128A117308D0
:1002180083160313D8007208D7001030F200273075
:10022800F3006008F5005F08F4000A128A15C82771
:100238000A128A11730883160313DA007208D900A8
:10024800C63083120313CE001B30CF00831603136E
:10025800580883120313D100831603135708831217
:100268000313D000831603135A0883120313D30011
:1002780083160313590883120313D2000A128A152E
:100288002C270A128A11C630F8000030F9000A1229
:100298008A1165270A128A110C300A128A117126EE
:1002A8000A128A110A300A128A1171260A128A1150
:1002B8003C30F2000030F300831203136D08F500A0
:1002C8006C08F4000A128A11AB270A128A11730803
:1002D80083160313DC007208DB003C30F2000030A8
:1002E800F300831203136D08F5006C08F4000A127A
:1002F8008A15C8270A128A11730883160313DE00A9
:100308007208DD00C03083120313CE000B30CF001B
:10031800831603135C0883120313D1008316031397
:100328005B0883120313D000831603135E0883123D
:100338000313D300831603135D0883120313D2003B
:100348000A128A152C270A128A11C030F8000030C8
:10035800F9000A128A1165270A128A1198280A12C6
:100368008A110C28F400741CBA29BB29D0298312DD
:100378000313610884008317621C83130130F200A1
:1003880064080739013ECA290310F20DFF3E031D18
:10039800C82972088004E5298312031361088400C0
:1003A8008317621C83130130F20064080739013E89
:1003B800DF290310F20DFF3E031DDD297208FF3A05
:1003C8008005F41CE829E929FF29610884008317BE
:1003D800621C83130130F200640CF300F30C730CFD
:1003E8000739013EF9290310F20DFF3E031DF729D5
:1003F80072088004152A610884008317621C83131D
:100408000130F200640CF300F30C730C0739013E61
:100418000F2A0310F20DFF3E031D0D2A7208FF3A42
:100428008005741D182A192A2C2A6108840083174C
:10043800621C83130130F20065080739013E262A41
:100448000310F20DFF3E031D242A720880043F2A80
:10045800610884008317621C83130130F200650869
:100468000739013E392A0310F20DFF3E031D372AD2
:100478007208FF3A8005F41D422A432A592A610866
:1004880084008317621C83130130F200650CF300AB
:10049800F30C730C0739013E532A0310F20DFF3E8B
:1004A800031D512A720880046F2A6108840083178B
:1004B800621C83130130F200650CF300F30C730C1B
:1004C8000739013E692A0310F20DFF3E031D672A12
:1004D8007208FF3A80050800831203133F0884005E
:1004E8008313000884000A128A150A200A128A1146
:1004F800253A031D802A812A082B3F0884000130F1
:100508008007E601E7010030FB00FF30E800FF301C
:10051800E900C701A52AFB143F08840001308007C1
:10052800A52A0130C700A52A3F08840000088400D6
:100538000A128A150A200A128A11303A03198F2AD8
:10054800952A47080319A92AAA2A982A3F08F800D1
:100558004008F9000A128A111A260A128A11790823
:1005680083120313E7007808E600E71FBC2ABD2AB8
:10057800C32A7B14E609E709E60A0319E70A3F08D4
:10058800840083130008C800480884000A128A15EA
:100598000A200A128A11753A031DD32AD42A002B7D
:1005A800400884000008C100023080074108840028
:1005B8000008C300840A0008C4003F0884004808F3
:1005C800013E8000F52A3D08B4003E08B500440805
:1005D800B7004308B6000A128A119C250A128A112C
:1005E800212B480884000A128A150A200A128A1147
:1005F800753A0319E72A002B831203133F08840076
:10060800013083138007212B3F08840000088400F1
:100618000A128A150A200A128A11C100C201410869
:10062800F2004208F3003D08F4003E08F5000A1203
:100638008A11CF230A128A11002B08006130840026
:1006480083120313200883138000840A2108800082
:10065800840A22088000840A23088000840A240867
:10066800800000306206031D3B2B05306106031D28
:100678003E2B3F2B432B8316031385015E2B003043
:100688006206031D492B06306106031D4C2B4D2BBA
:10069800512B8316031386015E2B00306206031D5F
:1006A800572B07306106031D5A2B5B2BCE2B831665
:1006B800031387013430F900F130F800F80B622B8E
:1006C800F90B622B672B03300A128A1171260A1262
:1006D8008A110D30F900FB30F800F80B712BF90B7B
:1006E800712B762B03300A128A1171260A128A118D
:1006F8002A30F9008D30F800F80B802BF90B802B8D
:10070800852B03300A128A1171260A128A110230C7
:100718000A128A1171260A128A1102300A128A11E3
:1007280071260A128A1108300A128A1171260A12D1
:100738008A1100300A128A1171260A128A110630AB
:100748000A128A1171260A128A110830FA007A15DB
:100758007A08F80004300310F80CFF3E031DAF2B95
:1007680078080F390A128A1171260A128A117A0832
:100778000F390A128A1171260A128A1100300A12D8
:100788008A1171260A128A1101300A128A117126F9
:100798000A128A110800740875040319D42BD52B82
:1007A800DB2B74087504031DDA2BDB2BE22B720894
:1007B8000A128A11FC270A128A116E2C7408093E43
:1007C80083120313A00075080318013E003EA10020
:1007D800200884008317211C83130008A200840AC0
:1007E8000008A300220823040319FB2BFC2B2E2C42
:1007F8007408093EA00075080318013E003EA100D8
:10080800200884008317211C83130008A200840A8F
:100818000008A3007408023EA40075080318013EEE
:10082800003EA500240884008317251C83130008B4
:10083800A600840A0008A7002708803AA800230811
:10084800803A2802031D2A2C2208260203182D2C80
:100858002E2C6E2C740884008317751C83130008D3
:1008680083120313A000840A0008A1007408023E42
:10087800A20075080318013E003EA3002208840068
:100888008317231C831300082007A5002108A40050
:100898000318A40A801F512CA403831203132408ED
:1008A800A600250884008317261C8313720880007D
:1008B8007408023EA00075080318013E003EA1001E
:1008C800200884008317211C831301308007840AC1
:1008D8000318800A080083120313AE01A71F752CA2
:1008E800762C832CA409A509A609A709A40A03192B
:1008F800A50A0319A60A0319A70A0130AE00AB1FFF
:10090800862C872C942CA809A909AA09AB09A80A3E
:100918000319A90A0319AA0A0319AB0A0130AE067A
:100928000030B2000030B1000030B0000030AF003D
:1009380027082604250424040319A32CA42CEF2C2F
:100948000130AD00B22C0130AC000310A40DA50D90
:10095800A60DA70DAC0BA92C0130AD07A71FB52C10
:10096800B62CA72C0130AC000310AF0DB00DB10DA3
:10097800B20DAC0BB82C27082B02031DCD2C260872
:100988002A02031DCD2C25082902031DCD2C24087D
:100998002802031CD02CD12CE02C2408A8022508FE
:1009A800031C250FA9022608031C260FAA022708E4
:1009B800031C270FAB022F1401300310A70CA60C41
:1009C800A50CA40CFF3E031DE12C0130AD02031D54
:1009D800EE2CEF2CB62C2E080319F32CF42CFF2C3C
:1009E800AF09B009B109B209AF0A0319B00A03196E
:1009F800B10A0319B20A3208A7003108A600300864
:100A0800A5002F08A4000800F7008312031361084B
:100A180084008317621C83130130F50063080739CB
:100A2800013E182D0310F50DFF3E031D162D750808
:100A380080047708F50004300310F50CFF3E031D11
:100A4800202D75080F390A128A11B6210A128A1147
:100A580083120313610884008317621C8313013017
:100A6800F500630CF600F60C760C0739013E3E2DB6
:100A78000310F50DFF3E031D3C2D750880041A3048
:100A8800F500F50B452D000083120313610884005F
:100A98008317621C83130130F500630CF600F60C13
:100AA800760C0739013E5A2D0310F50DFF3E031D44
:100AB800582D7508FF3A800577080F390A128A11F0
:100AC800B6210A128A11831203136108840083175E
:100AD800621C83130130F500630CF600F60C760CEB
:100AE8000739013E792D0310F50DFF3E031D772DC3
:100AF800750880041A30F500F50B802D000083126C
:100B08000313610884008317621C83130130F50006
:100B1800630CF600F60C760C0739013E952D031090
:100B2800F50DFF3E031D932D7508FF3A800508005B
:100B3800013083120313B8006708BA006608B900C9
:100B48001F30BB000030BC0083160313BF01E42D27
:100B5800FF3083120313BB070318BC0AFF30BC071E
:100B68003B08A03E84000A30F2000030F30037084A
:100B7800F5003608F4000A128A15C8270A128A11E5
:100B88007208303E8313800083120313B801FF30CC
:100B9800B9070318BA0AFF30BA070A30F200003062
:100BA800F3003708F5003608F4000A128A11AB275B
:100BB8000A128A11730883120313B7007208B60069
:100BC80083123B083C040319EA2DEB2D072E360847
:100BD8003704031DF02DF12DAC2D3808031DF52D1C
:100BE800F62DAC2D3A08803AFF0080307F02031DB5
:100BF800FF2D01303902031C022E032E072EFB188D
:100C0800062E072EAC2D831203133408AC003508CA
:100C1800AD003B08A03EAE003A08B0003908AF006E
:100C28000A128A11C6260A128A11080083120313AF
:100C3800A101A201780884008313000884000A1225
:100C48008A150A200A128A112A3A031D2C2E2D2EE3
:100C58005B2E78088400013080077908840000083A
:100C6800FA00023080077A0884000008A100840A8C
:100C78000008A2006C2E2208F3002108F2000A30B6
:100C8800F4000030F5000A128A154F270A128A115B
:100C98008312031320087207A100003003180130E3
:100CA8007307A2007808840001308313800778084E
:100CB8008400000884000A128A150A200A128A1180
:100CC800D03EA0000A302002031C6B2E6C2E3F2E53
:100CD8002208F9002108F8000800F700831203131E
:100CE800610884008317621C83130130F5006308D0
:100CF8000739013E812E0310F50DFF3E031D7F2E9F
:100D08007508FF3A800577080A128A11B6210A1277
:100D18008A1183120313610884008317621C8313EA
:100D28000130F500630CF600F60C760C0739013E2D
:100D38009F2E0310F50DFF3E031D9D2E75088004A0
:100D48000B30F6006230F500F50BA82EF60BA82E36
:100D5800000083120313610884008317621C831345
:100D68000130F500630CF600F60C760C0739013EED
:100D7800BF2E0310F50DFF3E031DBD2E7508FF3A6B
:100D8800800508007B1CC92ECA2ED72E8312031398
:100D98002E08F6002C08F7002D08F8000A128A150C
:100DA8009D270A128A1183120313B01FDC2EDD2E31
:100DB800DF2EAF01B001B201B301F92E2030F200ED
:100DC8000030F300831203132C08F4002D08F500FB
:100DD8000A128A11CF230A128A11013083120313CF
:100DE800B2070318B30A0030B3073308803AB100DA
:100DF8003008803A3102031D032F2F083202031CEA
:100E0800062F072FE22E7B180A2F0B2F182F83127D
:100E180003132E08F6002C08F7002D08F8000A1214
:100E28008A159D270A128A110800003083120313BD
:100E3800A3000030A2000030A1000030A000721C06
:100E4800262F272F402F760883120313A007770831
:100E580003110318013E0319322FA1077808031163
:100E68000318013E0319392FA20779080311031843
:100E7800013E0319402FA3070130FA000310F60DB5
:100E8800F70DF80DF90DFA0B422F01300310F50C90
:100E9800F40CF30CF20CFF3E031D4A2F7508740482
:100EA80073047204031D592F5A2F232F831203131F
:100EB8002308F5002208F4002108F3002008F200B6
:100EC800080083120313A301A4018E2F23087807B7
:100ED800A1007908A0000318A00AA31F742FA0037B
:100EE800831203132008A2002208FF0021088400AF
:100EF8000A128A1500200A128A110A128A11082574
:100F08000A128A11013083120313A3070318A40AD3
:100F18000030A40723087807A1007908A000031867
:100F2800A00AA31F982FA003831203132008A2006E
:100F38002208FF00210884000A128A1500200A12DC
:100F48008A11003A031DA92FAA2F6A2F0800F6015B
:100F5800F701720873040319B22FB32FE82F013079
:100F6800F800BF2F01300310F20DF30DFF3E031DF3
:100F7800B72F0130F807F31FC22FC32FB62F013048
:100F88000310F60DF70DFF3E031DC42F73087502FD
:100F9800031DD02F72087402031CD32FD42FDB2F0C
:100FA8007208F4027308031CF503F5027614013085
:100FB8000310F30CF20CFF3E031DDC2F0130F80286
:100FC800031DE72FE82FC32F7708F3007608F200F8
:100FD80008003130831203139000F6308F003C3044
:100FE8008E000C10831603130C140B178B170800B4
:020FF8000800EF
:10100000FF1B0A2883137F1883170008840A03191B
:10101000FF0A080008308A000408840A82070034A6
:1010200056346F346C34743461346A3465343A3411
:101030002034003425343034323475343A34253495
:101040003034323475340034303430343A3430345F
:1010500030340034253475342E342534753400345E
:101DB000073400341A342C343E3464008001840A21
:101DC0000406031900340406DE2E013083160317BF
:101DD00088008130831203139F0080308316031321
:101DE0009F0008000D30F500FB30F400F40BF62ED8
:101DF000F50BF62EFB2E831203139F149F18012F51
:101E0000022FFE2E1E08F300831603131E08F20095
:101E10000800831203134B08CD001B2F4908BD0097
:101E20004A08BE004D30BF004C08C0000A128A119B
:101E300070220A128A15831203134D0884000A12B5
:101E40008A150A200A128A15003A031D282F292F05
:101E50000E2FC901CA010800503083120313D500A8
:101E60004E08D6000030D700D801D901DF01E001CB
:101E70005630C9000030CA004F08CB005530CC00A6
:101E80000A128A1509270A128A15831203135808A1
:101E90004E07D40054088400831380010800F60123
:101EA000F701721C542F552F5B2F7408F607031887
:101EB000F70A7508F70701300310F40DF50DFF3E22
:101EC000031D5C2F01300310F30CF20CFF3E031DC9
:101ED000632F72087304031D6E2F6F2F512F770825
:101EE000F3007608F2000800831203130C1C792F0C
:101EF0007A2F962F0130EA070318EB0A0030EB0720
:101F000000306B02653003196A02031C882F892F89
:101F1000912F0130EC070318ED0A0030ED07EA01BC
:101F2000EB01F6308F003C308E000C1071088A00F7
:101F3000700E8300FE0E7E0E090083120313AA01A9
:101F4000AB01BA2F2908F900FA017908F2007A08E2
:101F5000F3007708F4007808F5000A128A11CF23FD
:101F60000A128A15013083120313AA070318AB0A59
:101F70000030AB072A087607F9007908840083133C
:101F80000008A9002908031DC62FC72FA22F08008B
:101F9000720873040319CD2FCE2FFB2F0130F600EA
:101FA000DA2F01300310F20DF30DFF3E031DD22F87
:101FB0000130F607F31FDD2FDE2FD12F73087502D6
:101FC000031DE42F72087402031CE72FE82FEE2F85
:101FD0007208F4027308031CF503F50201300310C4
:101FE000F30CF20CFF3E031DEF2F0130F602031D30
:101FF000FA2FFB2FDE2F7508F3007408F20008009B
:04400E00F12FFF3F50
:00000001FF
